:1040000031400039B240805A20013F4016000F93E2
:1040100004241F83CF430811FC233F4008000F9363
:1040200005242F839F4F78560011FB233040D24048
:104030003040BA55B012F84230410A0A53656E73E7
:104040006C61622053696D706C652044656D6F20F2
:1040500070726F6772616D005479706520636F6D67
:104060006D616E640009743A0974656D7065726102
:1040700074757265206D65617375726500096C3ABF
:10408000096C756D696E6F73697479206D65617304
:1040900075726500636D64203E20004C756D696E1D
:1040A0006F73697479206D6561737572653A202547
:1040B000693A25690A0054656D706572617475729C
:1040C00065206D6561737572653A2025692E2569D5
:1040D0000A0031400039B240805A2001B012324506
:1040E0003F42B012B844F2F08FFF3100F2D07000BE
:1040F0003200F2F08FFF3300F2D070003100B012C6
:1041000076453F400C00B0128245B012D845B0123F
:10411000444CB012624CB012AA4C2F43B01232423F
:104120003F400442B01236433F403A40B012585527
:1041300032D23F405840B01258553F406540B0120F
:1041400058553F407D40B0125855B01208483F4086
:104150000300B01244483D4000023E4000020F43BD
:10416000B01294483E401C420F43B01264483012D3
:104170009440B012024DC24300112153C29300116A
:10418000052032D01000C2930011FB275F420011BE
:104190008F113F906C001820B012444CB012BE4CEE
:1041A0004A4FB012E04C4B4F2F43B01232423F40C7
:1041B0000442B01236430B120A1230129B40B01266
:1041C000024D31500600D33F3F907400D023B0120F
:1041D00004464A4FB0122C464B4F0B110B110B11DA
:1041E0000B110B110F4B0F5F0F5F0F5F0F5F0F5F17
:1041F0000F5F0F5F0F8B0F8B0F8B0F120A12301296
:10420000B640DD3F7F90740005247F906C0002244F
:104210000F433041C24F00111F433041F2E0100004
:104220003100F2E040003100F2E0200031000F43A5
:104230003041021232C20343F2D030001B00F2D0F0
:10424000C0FF0400D2437000F24011007000F24041
:1042500021007100C24372002F9333243F9003006A
:104260001E2C0F9313241F930924F2401B0074008B
:10427000C2437500F240030073002A3CF2401A006A
:104280007400C2437500C2437300223CF2404500F3
:104290007400C2437500F240AAFF7300193C3F90BE
:1042A000030006242F92E123F24010007400E93F3E
:1042B000F24022007400C2437500F240DDFF73003B
:1042C000073CF2427400C2437500F2405B00730089
:1042D000D2C37000F2D04000000082430811824334
:1042E0000A1182430C110013F2B040000200FC27B7
:1042F0005F4276007FF33041021232C203430E4F19
:1043000082930C11FD2392430C11C24E7700D2B35D
:104310007100FD2782430C110F4E0013021232C2AE
:10432000034382930C11FD23F2F0CFFF1B00F2F048
:104330003F0004000013824F081130410F120E128B
:104340000D120C12D2B3720003245F4276000C3CB3
:104350001E4208110E9308245F4276008E120F93BE
:104360000324B1C0F00008003C413D413E413F41C3
:10437000001382930C1102240F43304192430C111D
:10438000A242220182432401B240C403E0010D4F46
:104390001D53824DE201B2407700E4013E53824E4C
:1043A000E601B2D01000E001E24F77001F43304138
:1043B000824F0A1130410F120E120D120C12B2B2BE
:1043C000E0010E248243E00182430C111F420A11D6
:1043D0000F9306248F120F930324B1C0F00008003E
:1043E0003C413D413E413F410013F24087FF5700B1
:1043F000E2425800F240C0FF5600E2C302003F40D4
:10440000FF000343034303430343034303430343C3
:10441000034303430343034303430343034303436C
:104420003F50F1FF1F93ED37E2B30200E623304126
:10443000C2435600C2435700F240AEFF5800E2C3E9
:1044400002003F40FF00034303430343034303438E
:10445000034303430343034303430343034303432C
:10446000034303433F50F1FF1F93ED37E2B30200D4
:10447000E6233041C2435600C2435700F2409EFF3C
:104480005800E2C302003F40FF00034303430343DD
:1044900003430343034303430343034303430343EC
:1044A00003430343034303433F50F1FF1F93ED379F
:1044B000E2B30200E62330410E432F9310243F90D5
:1044C0000300042C1F930D240E430B3C3E402000A0
:1044D0002F9207243E4030003F920324F53F3E4098
:1044E0001000F2F0CFFF5700C2DE57003041C24348
:1044F0005600C2435700F24088FF5800E2C3020052
:104500003F40FF0003430343034303430343034389
:10451000034303430343034303430343034303436B
:1045200003433F50F1FF1F93ED37E2B30200E62350
:104530003041C2435600C2435700F2408EFF58003C
:10454000E2C302003F40FF0003430343034303432E
:10455000034303430343034303430343034303432B
:104560000343034303433F50F1FF1F93ED37E2B38F
:104570000200E6233041021232C20343B012A646C3
:1045800000133F90090005243F900A00082C3F9239
:104590000324E24301113041C243011130413F90F5
:1045A0000A000D243F900B0006243F900C00F123DD
:1045B000F24201113041F240060001113041E24265
:1045C00001113041021232C203435F4201117FD018
:1045D000F1FFB0127C460013021232C203435F4265
:1045E00001117FF00E007FD0E0FFB0127C46001377
:1045F000021232C203435F4201117FD0E1FFB012C9
:104600007C4600130B12021232C203432F43B01236
:104610006A476F43B012FE46B01212474B4F2F430A
:10462000B012C4474F4B32413B4130410B12021292
:1046300032C203432F43B0126A475F43B012FE46B3
:10464000B01212474B4F2F43B012C4474F4B324169
:104650003B4130410B12021232C203432F43B012CE
:104660006A474F43B012FE46B01212474B4F2F43DA
:10467000B012C4474F4B32413B4130410B12021242
:1046800032C203434B4F2F43B0126A477F4080FF33
:10469000B012FE464F4BB012FE462F43B012C44735
:1046A00032413B413041F2D00A003200E2C23200D6
:1046B000F2D00E003300D2437800F24017007800A9
:1046C000F240A2FF7900C2437A00E2437C00C24379
:1046D0007D00F2D010000500F2F0CFFF0100D2C340
:1046E0007800F2F0E3FF1F00F2D01C001E00F2D0B1
:1046F00010001D00E2D21D00F2C21D003041C24F69
:104700007F00F2B010000300FC275F427E007FF3C1
:1047100030414F43B012FE467FF330410C4F4F43C0
:104720000D430D9E0D340F4C0F5DE24F7F00F2B034
:1047300010000300FC275F427E001D530D9EF33BDB
:104740007FF330410C4F0D430D9E0E34C2437F006A
:10475000F2B010000300FC270F4C0F5DDF427E001B
:1047600000001D530D9EF23B30412F931A243F90C1
:1047700003000B341F9301243041F2D010001D00C0
:10478000F2C21D00E2C21D0030413F90030001242F
:104790003041E2D21D00F2C21D00F2F0EFFF1D0019
:1047A0003041F2D010001D00E2D21D00F2C21D0007
:1047B000D2D37800F2F07F007900D2C37800F2D231
:1047C0001D0030412F9311243F90030006341F93A6
:1047D00001243041E2D21D0030413F90030001240A
:1047E0003041F2D010001D003041F2C21D00D2D382
:1047F0007800F2D080FF7900D2C3780030415F4268
:1048000030006FF27FF330410B12824360010D43A1
:104810001B4202111C4204110F4D0F5F0E4F0E5B25
:104820008E4300000E4F0E5C8E4300008F430E112E
:104830008F4316111D533D900300EE2B824314113C
:104840003B4130412F9202280F4330410F5F0F5FF1
:104850000F5F0F5F0F5F0F5F3FD02001824F60013E
:104860001F4330410D4F2F9202280F4330410F5FFD
:104870008F4E0E113D90030002241F4330410E93D2
:104880000324A2D36001F93FA2C36001F63F1F4297
:10489000700130410B120B4E1C4270013F9003001F
:1048A00002280F43103C0F5F0E4F1E5204110C5B89
:1048B0008E4C00000E4F1E520211BE401000000030
:1048C0008F4D16111F433B4130410B120B4E3F9051
:1048D000030002280F43103C0F5F0E4F1E520411BD
:1048E0000C5B8E4C00000E4F1E520211BE40100099
:1048F00000008F4D16111F433B4130413F90030094
:1049000002280F4330410F5F8F4E16111F43304175
:104910003F90030002280F4330410F5F0E4F1E529D
:1049200004118E4300000E4F1E5202118E430000F0
:104930008F4316118F430E111F433041B2F0CFFF4A
:10494000600130410F120E120D120C121E42161190
:104950000E930F241F4204118F5E00001F420E11A0
:104960000F9310248F120F930D24B1C0F000080094
:10497000093C1F4204118F4300001F4202118F4364
:104980000000EC3F3C413D413E413F4100130F12CE
:104990000E120D120C121F422E0112C30F103F9067
:1049A000050021240E4F0E5E1D4E16110D9310248E
:1049B0000F4E1F5204118F5D00001F4E0E110F93FA
:1049C0001C248F120F931924B1C0F0000800153C6D
:1049D0000F4E1F5204118F4300000F4E1F52021141
:1049E0008F430000EA3F1F4214110F9306248F12D9
:1049F0000F930324B1C0F00008003C413D413E410B
:104A00003F410013F2F0F5FF1A00F2D00A001B003C
:104A1000D2D37000F2D024007000D2C37000F2F044
:104A20002F007000C2437100F24020007100C243A9
:104A30007300F24003007400F24003007500B240BE
:104A4000AAAA1801C2435000C2435100D2D3700039
:104A50003041D2C37000D2D37000F2C27100E2D3F1
:104A60007000D24352007FF3824F1A01D2D37100FB
:104A7000E2D37100F2B010005100FC27DE42760054
:104A80000000F2B020007200FC231F4330410B12E3
:104A90004B4ED2C37000D2D37000E2D37000F2D27A
:104AA00071004E4F824E1A01F2F0DFFF5100F2C248
:104AB0005100D2435200D2D37100E2D37100F2B060
:104AC000200051000320E2B35100F927E2B3510066
:104AD00002240F43283CC24B7600F2B02000720043
:104AE000FC23F2C27100E2D37000C24D5200824E2C
:104AF0001A01F2C25100D2D37100E2D371000E4309
:104B00000E9D0C2CF2B010005100FC270F4C0F5ED4
:104B1000DF42760000001E530E9DF42BF2B0200001
:104B20007200FC231F433B413041D2C37000D2D3FB
:104B30007000E2D37000F2D271007FF3824F1A014D
:104B4000D2435200D2D37100E2D37100F2B0200000
:104B500051000320E2B35100F927E2B351000224CF
:104B60000F433041C24E7600F2B020007200FC23A9
:104B70001F433041D2C37000D2D37000E2D3700023
:104B8000F2D271007FF3824F1A014F4D5F53C24F33
:104B90005200D2D37100E2D37100F2B02000510074
:104BA0000320E2B35100F927E2B3510002240F437E
:104BB0003041C24E76000E430E9D112CF2B0200003
:104BC00051000320E2B35100F927E2B35100EF2373
:104BD0000F4C0F5EE24F76001E530E9DEF2BF2B08E
:104BE00020007200FC231F4330410C43D2C37000ED
:104BF000D2D37000E2D37000F2D271007FF3824F03
:104C00001A01C24E5200D2D37100E2D371000C9E41
:104C1000132CF2B0200051000320E2B35100F92719
:104C2000E2B3510002240F4330410F4D0F5CE24FBD
:104C300076001C530C9EED2BF2B020007200FC237A
:104C40001F433041021232C20343F2F0DFFF1F0064
:104C5000F2D020001E00F2D020001D00B012044A45
:104C60000013021232C221837E4003007F403900CC
:104C7000B0122A4B0E417F403900B012524A6F41A8
:104C800021530013021232C203434E437F403900C6
:104C9000B0122A4B0013021232C203437E401D00A1
:104CA0007F403900B0122A4B0013021232C2034374
:104CB0007E4018007F403900B0122A4B00130212C8
:104CC00032C221837E4043007F403900B0122A4B1C
:104CD0000E417F403900B012524A6F4121530013F8
:104CE000021232C221837E4083FF7F403900B0121E
:104CF0002A4B0E417F403900B012524A6F41215376
:104D000000130512041205413550060021820441AA
:104D10000E450F4E2F53844F02001D4402002E4EAD
:104D20003F403440B012DA4D844F00002F442152EE
:104D30003441354130410512041205413550060019
:104D4000318006000441844F0000844E02008493A9
:104D500002000120123C2F446F4F8F11945300002A
:104D60001E421C118E120F930334B4430400073CFF
:104D700092530611B4530200EA3F944304001F44C7
:104D8000040031500600344135413041051204120F
:104D900005413550060021820441C44F0000C44E35
:104DA0000100D493010001340F3C6F448F111E4267
:104DB0001C118E120F930334B4430200083C92532B
:104DC0000611F4530100ED3F6F44844F02001F446D
:104DD000020021523441354130410B120A120912AE
:104DE000081205120412054135500E00318056009C
:104DF0000441844F0000844E0200844D040084432B
:104E00000C0084430E00C443140082430611A244E4
:104E10001C119444020042009444420006001C44C9
:104E20004200E44C44005F4444004F930824F49053
:104E3000250044000120033C94534200F03F1D44F0
:104E400042001D840600844D46001F4446000F9317
:104E50000A241E4446001F440600B012364D0F932C
:104E6000023430404255C493440002203040425541
:104E700094534200C4434A00C4431100C443080091
:104E8000F4430900C4430A001F444200E44F4400B5
:104E900094534200F4907500440008245F44440099
:104EA0007FD020007F9078000124173C5F444A00A7
:104EB0005FF30A241F440400A4520400B44F0C0002
:104EC000B44F0E002F82093C1F440400A453040079
:104ED0002F4F844F0C0084430E00F49020004400B8
:104EE0000720C4930A00D023F44020000A00CC3FDE
:104EF000F490230044000320F4D24A00C53FF4900C
:104F00002A0044000524F4902D00440001241C3C98
:104F1000F4902A00440011201F440400A45304000C
:104F2000E44F08005F4408004F930138AD3F5F44F1
:104F300008007FE35F53C44F0800F4D010004A001C
:104F4000F4F0DFFF4A00A03FF4902B00440004205F
:104F5000F4402B000A00983FF4902E0044004E20AD
:104F60001F444200E44F44005F4444009453420015
:104F70007F902A0012201F440400A4530400A44F71
:104F80004600944446004C00B4934C000234B443B1
:104F90004C00D4444C000900773F84434600F49011
:104FA0003A0044001F34F4903000440001341A3CAD
:104FB0001F4446000F5F0F5F1E4446000E5E0F5EEB
:104FC0000F5E0F5E5E4444008E110F5E844F4600FC
:104FD000B450D0FF46001F444200E44F44009453B5
:104FE0004200DD3F944446004E00B4934E0002342C
:104FF000B4434E00D4444E0009004C3FF4903000BE
:10500000440009205F444A007FF010003D23F4D0A3
:1050100020004A00393FF490310044002B38F490CE
:105020003A0044002734844346001F4446000F5F83
:105030000F5F1E4446000E5E0F5E0F5E0F5E5E4405
:1050400044008E110F5E844F4600B450D0FF4600DE
:105050001F444200E44F440094534200F4903A004D
:1050600044000434F49030004400DF37D444460058
:105070000800103FF490680044000320E4D24A0086
:10508000033FF4906C0044000320D4D34A00FC3E5C
:10509000F4906300440012200F443F501600844FE8
:1050A00048001E4448001F440400A4530400EE4F6F
:1050B0000000D4431400C4430A00993DF490440016
:1050C00044000924F490640044000524F49069002D
:1050D000440001243C3CF490440044000220D4D31A
:1050E0004A005F444A005FF30A241F440400A452AC
:1050F0000400B44F0C00B44F0E002F82123C1F442A
:105100000400A45304002F4F844F0C0094440C005F
:105110000E0094540E000E0094740E000E00B4E3C2
:105120000E0084930E000F341E440C001F440E002A
:105130003EE33FE31E530F63844E0C00844F0E008A
:10514000F4402D000A00F4400A001000B73CF4902F
:105150004F0044000524F4906F0044000124093CF2
:10516000F4904F0044000220D4D34A00F4421000CF
:10517000A33CF4907000440012201F440400A45388
:105180000400A44F0C0084430E00F44010001000F3
:10519000F4D040004A00F440780044008D3CF49084
:1051A000730044005D201F440400A4530400A44F76
:1051B00048001F4448000F9327200C443C50160021
:1051C000844C48001D444800FD40280000001F4456
:1051D0004800FF406E0001001C444800FC40750080
:1051E00002001D444800FD406C0003001F444800BD
:1051F000FF406C0004001C444800FC4029000500EE
:105200001D444800CD430600C493090020385F4484
:1052100009008F110D4F0E431F444800B012BC55BA
:10522000844F4000849340000E245F4440005F841C
:105230004800C44F1400D494140009000E34D44420
:10524000090014000A3CD44409001400063C1F4421
:105250004800B0121856C44F1400C4430A00C73C9B
:10526000F490550044000524F49075004400012496
:105270000A3CF490550044000220D4D34A00F44084
:105280000A001000193CF490580044000524F490E2
:10529000780044000124993CF440100010005F4461
:1052A0004A007FF2092484930C00032084930E00AB
:1052B0000324F4D040004A00C4430A005F440900BC
:1052C000C44F11004F930338F4F0DFFF4A000C4441
:1052D0003C501600844C4800B45028004800849389
:1052E0000C00072084930E000420C49309000120C1
:1052F000623CC44351005E4410000F4394440C00D0
:10530000520094440E0054001C4452001D445400AA
:105310000C8E0D7F0228D44351005E4410000F43D1
:105320001C440C001D440E000A4E0B4FB0124E568A
:10533000C44E5000F4900A005000042CF450300089
:1053400050000A3CF45057005000F49058004400BC
:105350000320F4F0DFFF5000B45348001D44480020
:10536000DD44500000005E4410000F431C440C005C
:105370001D440E000A4E0B4FB0124E560E4C0F4DF0
:10538000844E0C00844F0E00C4935100B223F4925B
:10539000100011205F444A007FF20D241F44480092
:1053A000FF90300000000724B45348001C4448001C
:1053B000FC40300000000F443F5016005F8448005E
:1053C0007F502800C44F1400123CC49344000120B5
:1053D000B83C0D443D501600844D48001F44480021
:1053E000DF4444000000D4431400C4430A00D44402
:1053F000140013005C4411005C841400C44C1200BF
:10540000C49312000234C4431200C4930A0003245C
:10541000D4531300073C5F444A007FF0400002244D
:10542000E4531300D454120013005F444A007FF089
:1054300030001620D44408004600941146005F4412
:1054400013008F11848F46009493460009385E4400
:1054500046007F402000B0128C4D0F930134713C08
:10546000C4930A0009240F443F500A001E43B0129F
:10547000364D0F931534653C5F444A007FF0400081
:105480000F24F44030003E00D44444003F000F4459
:105490003F503E002E43B012364D0F930134513C25
:1054A0005F444A007FF030007F9020001620D444F3
:1054B00008004600941146005F4413008F11848F4A
:1054C00046009493460009385E4446007F40300011
:1054D000B0128C4D0F930134343C5E4412007F4077
:1054E0003000B0128C4D0F9301342B3C5F441400FC
:1054F0008F110E4F1F444800B012364D0F930134E8
:10550000203C5F444A007FF0100002203040184EDB
:10551000D44408004600941146005F4413008F11E4
:10552000848F46009493460002343040184E5E4407
:1055300046007F402000B0128C4D0F93023830405F
:10554000184E1F4206113150560034413541384142
:1055500039413A413B413041051204120541355071
:105560000600318006000441844F0000844302009D
:105570002F44CF9300000C242F446F4F8F1194536E
:105580000000B0123440844F020084930200F037D0
:105590008493020007383F400A00B0123440844F21
:1055A0000400043C1F440200844F04001F44040014
:1055B00031500600344135413041001305120412C8
:1055C00005413550060031800A000441844F000037
:1055D0000F4E844D0600C44F04008493060013242C
:1055E000A44408001E4408006F4E945308005F94C2
:1055F000040006201F4408003F53844F0200053C6E
:10560000B4530600EF23844302001F4402003150CC
:105610000A0034413541304105120412054135502C
:10562000060021820441844F0000A44402001F446C
:105630000200CF9300000120033C94530200F73F87
:105640001F4402002F8421523441354130410FEF75
:105650000EEE394021000A3C08100E6E0F6F0F9BB2
:10566000052802200E9A02280E8A0F7B0C6C0D6D05
:0856700008681983F1233041A1
:08567800000262017201000052
:10FFE000B64330403040304030408E494449304084
:10FFF00030403C43304030403040304030400040A2
:0400000300004000B9
:00000001FF
